{
  "contractName": "MissingDiaries",
  "abi": [
    {
      "constant": true,
      "inputs": [
        {
          "internalType": "address",
          "name": "",
          "type": "address"
        }
      ],
      "name": "admins",
      "outputs": [
        {
          "internalType": "bool",
          "name": "",
          "type": "bool"
        }
      ],
      "payable": false,
      "stateMutability": "view",
      "type": "function"
    },
    {
      "constant": true,
      "inputs": [
        {
          "internalType": "uint256",
          "name": "",
          "type": "uint256"
        }
      ],
      "name": "people",
      "outputs": [
        {
          "internalType": "string",
          "name": "name",
          "type": "string"
        },
        {
          "internalType": "uint256",
          "name": "age",
          "type": "uint256"
        },
        {
          "internalType": "uint256",
          "name": "height",
          "type": "uint256"
        },
        {
          "internalType": "string",
          "name": "status",
          "type": "string"
        },
        {
          "internalType": "string",
          "name": "description",
          "type": "string"
        },
        {
          "internalType": "string",
          "name": "division",
          "type": "string"
        },
        {
          "internalType": "string",
          "name": "contactNumber",
          "type": "string"
        }
      ],
      "payable": false,
      "stateMutability": "view",
      "type": "function"
    },
    {
      "constant": true,
      "inputs": [],
      "name": "peopleCount",
      "outputs": [
        {
          "internalType": "uint256",
          "name": "",
          "type": "uint256"
        }
      ],
      "payable": false,
      "stateMutability": "view",
      "type": "function"
    },
    {
      "constant": false,
      "inputs": [
        {
          "internalType": "address",
          "name": "_admin",
          "type": "address"
        }
      ],
      "name": "addAdmin",
      "outputs": [],
      "payable": false,
      "stateMutability": "nonpayable",
      "type": "function"
    },
    {
      "constant": false,
      "inputs": [
        {
          "internalType": "string",
          "name": "_name",
          "type": "string"
        },
        {
          "internalType": "uint256",
          "name": "_age",
          "type": "uint256"
        },
        {
          "internalType": "uint256",
          "name": "_height",
          "type": "uint256"
        },
        {
          "internalType": "string",
          "name": "_status",
          "type": "string"
        },
        {
          "internalType": "string",
          "name": "_description",
          "type": "string"
        },
        {
          "internalType": "string",
          "name": "_division",
          "type": "string"
        },
        {
          "internalType": "string",
          "name": "_contactNumber",
          "type": "string"
        }
      ],
      "name": "addPerson",
      "outputs": [],
      "payable": false,
      "stateMutability": "nonpayable",
      "type": "function"
    },
    {
      "constant": false,
      "inputs": [
        {
          "internalType": "uint256",
          "name": "_personId",
          "type": "uint256"
        }
      ],
      "name": "updateStatus",
      "outputs": [],
      "payable": false,
      "stateMutability": "nonpayable",
      "type": "function"
    },
    {
      "constant": true,
      "inputs": [],
      "name": "getMedian",
      "outputs": [
        {
          "internalType": "uint256",
          "name": "",
          "type": "uint256"
        }
      ],
      "payable": false,
      "stateMutability": "view",
      "type": "function"
    }
  ],
  "bytecode": "0x6080604052600060025534801561001557600080fd5b50611258806100256000396000f3fe608060405234801561001057600080fd5b506004361061007d5760003560e01c8063704802751161005b578063704802751461011a5780637eae757a1461015e5780639e7a13ad1461033f578063d61e7201146105a45761007d565b80631ff7dabc14610082578063267c68e0146100a0578063429b62e5146100be575b600080fd5b61008a6105d2565b6040518082815260200191505060405180910390f35b6100a8610731565b6040518082815260200191505060405180910390f35b610100600480360360208110156100d457600080fd5b81019080803573ffffffffffffffffffffffffffffffffffffffff169060200190929190505050610737565b604051808215151515815260200191505060405180910390f35b61015c6004803603602081101561013057600080fd5b81019080803573ffffffffffffffffffffffffffffffffffffffff169060200190929190505050610757565b005b61033d600480360360e081101561017457600080fd5b810190808035906020019064010000000081111561019157600080fd5b8201836020820111156101a357600080fd5b803590602001918460018302840111640100000000831117156101c557600080fd5b90919293919293908035906020019092919080359060200190929190803590602001906401000000008111156101fa57600080fd5b82018360208201111561020c57600080fd5b8035906020019184600183028401116401000000008311171561022e57600080fd5b90919293919293908035906020019064010000000081111561024f57600080fd5b82018360208201111561026157600080fd5b8035906020019184600183028401116401000000008311171561028357600080fd5b9091929391929390803590602001906401000000008111156102a457600080fd5b8201836020820111156102b657600080fd5b803590602001918460018302840111640100000000831117156102d857600080fd5b9091929391929390803590602001906401000000008111156102f957600080fd5b82018360208201111561030b57600080fd5b8035906020019184600183028401116401000000008311171561032d57600080fd5b9091929391929390505050610852565b005b61036b6004803603602081101561035557600080fd5b8101908080359060200190929190505050610ab6565b60405180806020018881526020018781526020018060200180602001806020018060200186810386528d818151815260200191508051906020019080838360005b838110156103c75780820151818401526020810190506103ac565b50505050905090810190601f1680156103f45780820380516001836020036101000a031916815260200191505b5086810385528a818151815260200191508051906020019080838360005b8381101561042d578082015181840152602081019050610412565b50505050905090810190601f16801561045a5780820380516001836020036101000a031916815260200191505b50868103845289818151815260200191508051906020019080838360005b83811015610493578082015181840152602081019050610478565b50505050905090810190601f1680156104c05780820380516001836020036101000a031916815260200191505b50868103835288818151815260200191508051906020019080838360005b838110156104f95780820151818401526020810190506104de565b50505050905090810190601f1680156105265780820380516001836020036101000a031916815260200191505b50868103825287818151815260200191508051906020019080838360005b8381101561055f578082015181840152602081019050610544565b50505050905090810190601f16801561058c5780820380516001836020036101000a031916815260200191505b509c5050505050505050505050505060405180910390f35b6105d0600480360360208110156105ba57600080fd5b8101908080359060200190929190505050610df0565b005b600060606002546040519080825280602002602001820160405280156106075781602001602082028038833980820191505090505b5090506000600190505b60025481116107215760405160200180807f6d697373696e67000000000000000000000000000000000000000000000000008152506007019050604051602081830303815290604052805190602001206001600083815260200190815260200160002060030160405160200180828054600181600116156101000203166002900480156106d55780601f106106b35761010080835404028352918201916106d5565b820191906000526020600020905b8154815290600101906020018083116106c1575b505091505060405160208183030381529060405280519060200120141561071457600182600183038151811061070757fe5b6020026020010181815250505b8080600101915050610611565b5061072b81610f6c565b91505090565b60025481565b60006020528060005260406000206000915054906101000a900460ff1681565b6000803373ffffffffffffffffffffffffffffffffffffffff1673ffffffffffffffffffffffffffffffffffffffff16815260200190815260200160002060009054906101000a900460ff166107f8576040517f08c379a00000000000000000000000000000000000000000000000000000000081526004018080602001828103825260228152602001806112026022913960400191505060405180910390fd5b60016000808373ffffffffffffffffffffffffffffffffffffffff1673ffffffffffffffffffffffffffffffffffffffff16815260200190815260200160002060006101000a81548160ff02191690831515021790555050565b6002600081548092919060010191905055506040518060e001604052808d8d8080601f016020809104026020016040519081016040528093929190818152602001838380828437600081840152601f19601f8201169050808301925050505050505081526020018b81526020018a815260200189898080601f016020809104026020016040519081016040528093929190818152602001838380828437600081840152601f19601f82011690508083019250505050505050815260200187878080601f016020809104026020016040519081016040528093929190818152602001838380828437600081840152601f19601f82011690508083019250505050505050815260200185858080601f016020809104026020016040519081016040528093929190818152602001838380828437600081840152601f19601f82011690508083019250505050505050815260200183838080601f016020809104026020016040519081016040528093929190818152602001838380828437600081840152601f19601f820116905080830192505050505050508152506001600060025481526020019081526020016000206000820151816000019080519060200190610a1c9291906110dc565b5060208201518160010155604082015181600201556060820151816003019080519060200190610a4d9291906110dc565b506080820151816004019080519060200190610a6a9291906110dc565b5060a0820151816005019080519060200190610a879291906110dc565b5060c0820151816006019080519060200190610aa49291906110dc565b50905050505050505050505050505050565b6001602052806000526040600020600091509050806000018054600181600116156101000203166002900480601f016020809104026020016040519081016040528092919081815260200182805460018160011615610100020316600290048015610b625780601f10610b3757610100808354040283529160200191610b62565b820191906000526020600020905b815481529060010190602001808311610b4557829003601f168201915b505050505090806001015490806002015490806003018054600181600116156101000203166002900480601f016020809104026020016040519081016040528092919081815260200182805460018160011615610100020316600290048015610c0c5780601f10610be157610100808354040283529160200191610c0c565b820191906000526020600020905b815481529060010190602001808311610bef57829003601f168201915b505050505090806004018054600181600116156101000203166002900480601f016020809104026020016040519081016040528092919081815260200182805460018160011615610100020316600290048015610caa5780601f10610c7f57610100808354040283529160200191610caa565b820191906000526020600020905b815481529060010190602001808311610c8d57829003601f168201915b505050505090806005018054600181600116156101000203166002900480601f016020809104026020016040519081016040528092919081815260200182805460018160011615610100020316600290048015610d485780601f10610d1d57610100808354040283529160200191610d48565b820191906000526020600020905b815481529060010190602001808311610d2b57829003601f168201915b505050505090806006018054600181600116156101000203166002900480601f016020809104026020016040519081016040528092919081815260200182805460018160011615610100020316600290048015610de65780601f10610dbb57610100808354040283529160200191610de6565b820191906000526020600020905b815481529060010190602001808311610dc957829003601f168201915b5050505050905087565b6000803373ffffffffffffffffffffffffffffffffffffffff1673ffffffffffffffffffffffffffffffffffffffff16815260200190815260200160002060009054906101000a900460ff16610e91576040517f08c379a00000000000000000000000000000000000000000000000000000000081526004018080602001828103825260228152602001806112026022913960400191505060405180910390fd5b600254811115610f09576040517f08c379a00000000000000000000000000000000000000000000000000000000081526004018080602001828103825260158152602001807f506572736f6e20646f6573206e6f74206578697374000000000000000000000081525060200191505060405180910390fd5b6040518060400160405280600581526020017f666f756e64000000000000000000000000000000000000000000000000000000815250600160008381526020019081526020016000206003019080519060200190610f6892919061115c565b5050565b600080825190506060610f7e8461100e565b9050600060028381610f8c57fe5b061415610fe65760028160028481610fa057fe5b0481518110610fab57fe5b602002602001015182600160028681610fc057fe5b040381518110610fcc57fe5b60200260200101510181610fdc57fe5b0492505050611009565b8060028381610ff157fe5b0481518110610ffc57fe5b6020026020010151925050505b919050565b606060008090505b82518110156110d35760006001820190505b83518110156110c55783818151811061103d57fe5b602002602001015184838151811061105157fe5b602002602001015111156110b85783818151811061106b57fe5b602002602001015184838151811061107f57fe5b602002602001015185848151811061109357fe5b602002602001018684815181106110a657fe5b60200260200101828152508281525050505b8080600101915050611028565b508080600101915050611016565b50819050919050565b828054600181600116156101000203166002900490600052602060002090601f016020900481019282601f1061111d57805160ff191683800117855561114b565b8280016001018555821561114b579182015b8281111561114a57825182559160200191906001019061112f565b5b50905061115891906111dc565b5090565b828054600181600116156101000203166002900490600052602060002090601f016020900481019282601f1061119d57805160ff19168380011785556111cb565b828001600101855582156111cb579182015b828111156111ca5782518255916020019190600101906111af565b5b5090506111d891906111dc565b5090565b6111fe91905b808211156111fa5760008160009055506001016111e2565b5090565b9056fe4f6e6c792061646d696e732063616e2063616c6c20746869732066756e6374696f6ea265627a7a72315820192f3396ed93477ce0f67454ccc3358ee6c3a70edccb1e4d4e6302ac8047eeae64736f6c63430005100032",
  "source": "// contracts/MissingDiaries.sol\npragma solidity ^0.5.16;\n\ncontract MissingDiaries {\n    struct Person {\n        string name;\n        uint256 age;\n        uint256 height;\n        string status;\n        string description;\n        string division;\n        string contactNumber;\n    }\n\n    mapping(address => bool) public admins;\n    mapping(uint256 => Person) public people;\n    uint256 public peopleCount = 0;\n\n    modifier onlyAdmin() {\n        require(admins[msg.sender], \"Only admins can call this function\");\n        _;\n    }\n\n    function addAdmin(address _admin) external onlyAdmin {\n        admins[_admin] = true;\n    }\n\nfunction addPerson(\n    string calldata _name,\n    uint256 _age,\n    uint256 _height,\n    string calldata _status,\n    string calldata _description,\n    string calldata _division,\n    string calldata _contactNumber\n) external {\n    peopleCount++;\n    people[peopleCount] = Person({\n        name: _name,\n        age: _age,\n        height: _height,\n        status: _status,\n        description: _description,\n        division: _division,\n        contactNumber: _contactNumber\n    });\n}\n\n\n    function updateStatus(uint256 _personId) external onlyAdmin {\n        require(_personId <= peopleCount, \"Person does not exist\");\n        people[_personId].status = \"found\";\n    }\n\n    function getMedian() external view returns (uint256) {\n        uint256[] memory counts = new uint256[](peopleCount);\n        for (uint256 i = 1; i <= peopleCount; i++) {\n            if (keccak256(abi.encodePacked((people[i].status))) == keccak256(abi.encodePacked((\"missing\")))) {\n                counts[i - 1] = 1;\n            }\n        }\n        return calculateMedian(counts);\n    }\n\n    function calculateMedian(uint256[] memory counts) internal pure returns (uint256) {\n        uint256 n = counts.length;\n        uint256[] memory sortedCounts = sortArray(counts);\n\n        if (n % 2 == 0) {\n            return (sortedCounts[n / 2 - 1] + sortedCounts[n / 2]) / 2;\n        } else {\n            return sortedCounts[n / 2];\n        }\n    }\n\n    function sortArray(uint256[] memory arr) internal pure returns (uint256[] memory) {\n        for (uint256 i = 0; i < arr.length; i++) {\n            for (uint256 j = i + 1; j < arr.length; j++) {\n                if (arr[i] > arr[j]) {\n                    (arr[i], arr[j]) = (arr[j], arr[i]);\n                }\n            }\n        }\n        return arr;\n    }\n}\n\n",
  "sourcePath": "/home/nocktowl/CSE446/Ethereum Project/explorer-master/election/contracts/Migrations.sol",
  "compiler": {
    "name": "solc",
    "version": "0.5.16+commit.9c3226ce.Emscripten.clang"
  },
  "schemaVersion": "3.4.16",
  "updatedAt": "2023-12-04T16:38:34.196Z",
  "networkType": "ethereum",
  "devdoc": {
    "methods": {}
  },
  "userdoc": {
    "methods": {}
  }
}